:060000000A128A1110280B
:10000800FE00030E83120313A9000408AA000A08BD
:10001800AB000A128A11C1290A128A111328FD019C
:1000280083120313B001B101B201B301B401B501E8
:10003800B601B701B80183010A128A11652AF200D4
:1000480004307D06031D29282A28C0286228BF30CD
:10005800831203138800E82886308312031388006C
:10006800E828DB30831203138800E828CF30831296
:1000780003138800E828E630831203138800E82871
:10008800ED30831203138800E828FD308312031330
:100098008800E8288730831203138800E828FF3097
:1000A800831203138800E828EF30831203138800B3
:1000B800E8288030831203138800E8287208F000CB
:1000C800F1017108003A03196A285D287008003A9E
:1000D80003192B28013A03193028033A0319352844
:1000E800013A03193A28073A03193F28013A031934
:1000F8004428033A03194928013A03194E280F3AAC
:1001080003195328013A031958285D283F308312F0
:1001180003138800E8280630831203138800E828B0
:100128005B30831203138800E8284F3083120313CF
:100138008800E8286630831203138800E8286D30A9
:10014800831203138800E8287D3083120313880084
:10015800E8280730831203138800E8287F308312C9
:1001680003138800E8286F30831203138800E828F7
:10017800831203138801E8287208F000F10171085E
:10018800003A0319C828BC287008003A03198A28BD
:10019800013A03198F28033A03199428013A0319DD
:1001A8009928073A03199E28013A0319A328033A04
:1001B8000319A828013A0319AD280F3A0319B228E0
:1001C800013A0319B728BC2808008312031325082D
:1001D800FC002408FB006430F6000030F7007C08BF
:1001E800F9007B08F8000A128A1158210A128A11AC
:1001F800831203132608043E8400760883138000C4
:10020800840A770880002608043E84000008F0006D
:10021800840A0008F1006430F2000030F3000A128A
:100228008A11A3220A128A117008FB027108031CA2
:10023800FC03FC020A30F6000030F7007C08F900E5
:100248007B08F8000A128A1158210A128A118312AF
:1002580003132608023E8400760883138000840A6C
:10026800770880002608023E84000008F000840A0F
:100278000008F1000A30F2000030F3000A128A1177
:10028800A3220A128A117008FB027108031CFC03DE
:10029800FC0283120313260884007B088313800062
:1002A800840A7C088000080083120313A101F71F49
:1002B8005E295F296629F609F709F60A0319F70A7C
:1002C800A101A10AF91F69296A297329F809F909FD
:1002D800F80A0319F90A0130FA007A08A106A201FE
:1002E800A3017608770403197A297B29B229A0018A
:1002F800A00A892901300310F60DF70DFF3E031DF2
:100308007F290130FA007A08A007F71F8C298D2968
:100318007E2901300310A20DA30DFF3E031D8E2977
:1003280077087902031D9A2976087802031C9D290B
:100338009E29A5297608F8027708031CF903F90213
:10034800221401300310F70CF60CFF3E031DA629FA
:100358000130A002031DB129B2298D2921080319F2
:10036800B629B729BC29A209A309A20A0319A30A15
:100378002308F7002208F60008000C1FC429C52925
:10038800022A0C131F0CA700270C0F39003A031D73
:10039800CE29CF29D2291E088700022A3330F60039
:1003A8000030F7001E08A700A8012708F000280859
:1003B800F1006430F2000030F3000A128A11A3221F
:1003C8000A128A117108F9007008F8000A128A11D5
:1003D80058210A128A11770883120313AD00760890
:1003E800AC002D08A5002C08A4003330A70027086E
:1003F800A6000A128A11E9200A128A110B1D052A81
:10040800062A112AEC3083120313810086010A128E
:100418008A111C220A128A110B11831203132B084A
:100428008A002A088400290E8300FE0E7E0E090029
:1004380004307D020318212A222A2F2A7D08031D51
:10044800262A272A2C2A0130F3007308FD07512A8F
:100458000310FD0D512AFD01FD0A512A83120313D1
:1004680033080A128A1123200A128A117D0883127E
:1004780003138600642A8312031335080A128A11AB
:1004880023200A128A113A2A8312031337080A1200
:100498008A1123200A128A113A2A7D08F300F401EE
:1004A8007408003A0319592A642A7308013A03198F
:1004B800322A033A03193F2A063A0319482A642ABA
:1004C80008000A128A11DE220A128A110A128A11F7
:1004D80009230A128A110A128A11F1220A128A11B0
:1004E8000A128A11C8220A128A110A128A11FE22D5
:1004F8000A128A11831203139F149F18842A852ACB
:10050800812A1F0CAF002F0C0F39003A031D8D2ACA
:100518008E2A932A1F08C33904389F00952AC330AE
:100528009F050F3083120313AF00AF0B992A9C2A43
:10053800831203139F14812A0A128A111028F401C6
:10054800F501701CA82AA92AAF2A7208F407031813
:10055800F50A7308F50701300310F20DF30DFF3E9D
:10056800031DB02A01300310F10CF00CFF3E031DEF
:10057800B72A70087104031DC22AC32AA52A750860
:10058800F1007408F0000800831603139F131F126C
:100598009F12831203131F083F3940389F00C3304E
:1005A8009F051F140F3083120313AE00AE0BDA2A17
:1005B800DD2A0800033083160317880089010330F9
:1005C80083160313850086018701880183120313AC
:1005D80085018601880187010800831603138112AB
:1005E80081110115811401140B11EC3083120313CE
:1005F800810008008B170B178B16831603130C1733
:100608000B11831203130C130800831603130F082E
:0A0618008F3960388F000F140800BE
:08400000FF3FFF3FFF3FFF3FC0
:04400E00D420FF3F7C
:00000001FF
